:020000040000FA
:040000000DEF00F010
:0400080051EF08F0BC
:06001800FF00C1EF08F03B
:10080000003C6C3636CF0750B98488083CABAA2A26
:10081000BEA3858832DA0FC93F83F9223F0000006A
:100820003F0000404B179ACC373F04B6BA9FAA2A24
:100830003D000000BFDB0FC940E4CB9640DB0F4911
:1008400040DB0FC93FDB0FC940E4CB9640DB0F49CB
:1008500040DB0FC93FC4E3BAC3C4FABAC30064643F
:10086000646464640000276E000E206E000E1F6E2C
:10087000000E226E000E216E2750175C286E296A2A
:10088000D8A029061650185C2A6E2B6AD8A02B0611
:1008900029BE08D0295003E12804D8A003D0010EB6
:1008A000236E12D028502910D8A40DD0600058F023
:1008B00011F0600060F012F0600064F013F0275057
:1008C000DFEC07F0120023682BBE08D02B5003E1A9
:1008D0002A04D8A003D0010E246E12D02A502B1067
:1008E000D8A40DD060005CF011F0600058F012F058
:1008F000600064F013F02750FDEC07F0120024684C
:100900006000A0F001F06000A4F002F0C0EC07F07D
:10091000600004F028F0600008F029F06000A8F002
:1009200001F06000ACF002F0C0EC07F0600004F0F1
:100930002AF0600008F02BF028502A5C2B50800A27
:100940001A6E2950800A1A58D8B007D06000A0F05B
:1009500025F06000A4F026F006D06000A8F025F095
:100960006000ACF026F0600058F007F0600064F022
:1009700008F0275005EC05F0000E1E6E000E1D6EEF
:1009800033D0600058F007F0600064F008F02750A2
:1009900005EC05F028501F26295020222A50212638
:1009A0002B5022221F50255C2650800A1A6E2050A0
:1009B000800A1A58D8B006D025501F5E2650205AFB
:1009C000235027262150255C2650800A1A6E22507B
:1009D000800A1A58D8B006D02550215E2650225AD7
:1009E000245016261D4A1E2A010E25241A6E000EBA
:1009F00026201B6E1D501A5C1B50800A1C6E1E5058
:100A0000800A1C58D8A01200BCD70B6E340E84ECA0
:100A100008F0360E84EC08F00B380F0B0D6E0B50FF
:100A20000F0B106E200E076004D060001CF00CF05D
:100A300005D00750E00F0C6E080E0D260C50800FED
:100A400084EC08F00D50800F84EC08F037EC08F0CF
:100A500037EC08F00E6E37EC08F00F6E0C50800F7C
:100A600084EC08F00D50800F84EC08F0080E106044
:100A70006FD02BD010500708096E010E0A6E092A9C
:100A800002D0D8900A36092EFCD70A50FF0A0E165B
:100A90002DD010500708096E010E0A6E092A02D0E7
:100AA000D8900A36092EFCD70A500E121FD01050CB
:100AB0000708096E010E0A6E092A02D0D8900A367C
:100AC000092EFCD70A500E1A11D00850096E0A6A76
:100AD0000A50000AD8A40AD00950000AD8B4CAD7CC
:100AE000010AD8B4D6D7030AD8B4E1D70E5011EC16
:100AF00007F00F5011EC07F042D010500F08096EAC
:100B0000010E0A6E092A02D0D8900A36092EFCD7A7
:100B10000A50FF0A0F162DD010500F08096E010E53
:100B20000A6E092A02D0D8900A36092EFCD70A503C
:100B30000F121FD010500F08096E010E0A6E092AFD
:100B400002D0D8900A36092EFCD70A500F1A11D0BD
:100B50000850096E0A6A0A50000AD8A40AD009503F
:100B6000000AD8B4CAD7010AD8B4D6D7030AD8B471
:100B7000E1D70E5011EC07F00F5011EC07F0300EDA
:100B800084EC08F01200800E8F6E8E50E00B800A0D
:100B9000D8A4FBD7000E916E000E3701006F000E37
:100BA000BA6F000EBB6F000EB86F000EB96F000E6B
:100BB000BE6F000EBF6F000EBC6F000EBD6F000E4B
:100BC000A26F000EA36F000EA06F000EA16F000EAB
:100BD000A66F000EA76F000EA46F000EA56F000E8B
:100BE000AA6F000EAB6F000EA86F000EA96F000E6B
:100BF000AE6F000EAF6F000EAC6F000EAD6F000E4B
:100C0000B26F000EB36F000EB06F000EB16F000E2A
:100C1000B66F000EB76F000EB46F000EB56F000E0A
:100C2000036FA80E046F010E056F000E8F6E6F002C
:100C300038FE01F0E00E0116D8B41200F8D702EC2D
:100C400009F0E7EC06F0BB8ABA8ABC88BC86020EC3
:100C50002D6E450E2C6EAA0EE82EFED72C2EFCD73C
:100C60002D2EFAD7010E076E010E80EC07F05E0EF6
:100C7000076E080E086E6BEC08F0000E076E020E91
:100C800080EC07F0A10E11EC07F0F00E11EC07F06C
:100C9000000E086E020E076E000E0A6E090E096E37
:100CA000000E0C6E040E0B6E550E0D6E080E0E6EC1
:100CB000B1EC06F037EC07F0020E2D6E450E2C6EEF
:100CC000AA0EE82EFED72C2EFCD72D2EFAD7000E1A
:100CD000166E7F0E176E3F0E186E010E196E0C0EFB
:100CE00033EC04F032EC09F0B2D7000EBA6E000E0D
:100CF000BB6E000EBC6ED80EC26E0F0EC36E240EFD
:100D0000C46E040E3A01606F000E506F000E406F0B
:100D1000000E816F000E516F000E416F000E616F6B
:100D2000000E426F000E526F030E626F43695369EB
:100D30006369446954696469080E846F210E106FF9
:100D4000110EE46F080EC06F220E116F0B0EED6FC7
:100D5000330E0C6F0A0EC26F090EC16F100EE36FD7
:100D60001200300E84EC08F000D000D00750100DB7
:100D7000F35009246F0F84EC08F0000E126E19D0A6
:100D8000600037F0F6FF60003BF0F7FF0800F55019
:100D900011EC07F00D4A0E2A600037F0F6FF6000F4
:100DA0003BF0F7FF0800F55011EC07F00D4A0E2A52
:100DB000122A12500F6E106A0B500F5C1050800AEE
:100DC000116E0C50800A1158D8B01200D9D7BB9AB6
:100DD000040E076E3E0EE82EFED7072EFCD7BB8A08
:100DE000210E076E760EE82EFED7072EFCD700D018
:100DF000BA8ABC98BC96300E84EC08F00C0E84ECD9
:100E000008F0010E84EC08F0020E84EC08F0060EE7
:100E100084EC08F00C0E84EC08F0140E84EC08F05E
:100E20001200066E0650F00B046E600018F003F01E
:100E30000F0E03160338F00B056E070E036E7D0EC2
:100E4000E82EFED7032EFCD700F0FA0E1BEC08F0BC
:100E500004501BEC08F005501BEC08F0070E036E65
:100E60007D0EE82EFED7032EFCD700F01200000EF8
:100E7000076E340E84EC08F0000E086E0850D8A4FB
:100E800004D0800E84EC08F003D0880E84EC08F0C7
:100E9000000E076E000E11EC07F0000E11EC07F0CB
:100EA000072A0F0E0764F6D7082A0850D8B4E6D7E9
:100EB000360E84EC08F01200000E016E000E026E79
:100EC000000E016EC488BC88BC86A60EE82EFED734
:100ED00000D0BC96A60EE82EFED700D0CCA805D038
:100EE00002500109026EBB9E01D0BB8E025002244B
:100EF000026E012A070E0164E5D7C4980250120061
:100F0000096E0904D8A403D00750800F086E020EA2
:100F10000918D8A403D00750900F086E030E0918C3
:100F2000D8A403D00750880F086E040E0918D8A45F
:100F300003D00750980F086E085084EC08F0120098
:100F40003901A191D2909A0E016E120E026E2BEC15
:100F500009F039019181A49FD292980E016E120E70
:100F6000026E24EC09F03901948FA89DD294960E5C
:100F7000016E120E026E1DEC09F03901988D1200FF
:100F800002BE05D0025014E10104D8B011D06000B7
:100F900004F003F0600008F004F0031E041E034A8E
:100FA000042A60000CF001F0600010F002F0120062
:100FB000600004F001F0600008F002F01200146E0E
:100FC0001150125CD8B014D0600048F015F06000E9
:100FD00044F012F0600054F011F00AD0600044F0C8
:100FE00007F060004CF008F0145005EC05F0112AF1
:100FF0001150125CD8A01200F1D7156E1550115C7B
:10100000D8B014D0600044F014F0600054F011F037
:10101000600050F015F00AD0600048F007F0600062
:101020004CF008F0155005EC05F0152A1550115C30
:10103000D8A01200F1D7016E000E026E000E026EF3
:1010400001AE02D0BC8801D0BC98BC86A60EE82EAA
:10105000FED700D0BC96A60EE82EFED700D00150D9
:101060000124016E022A070E0264EAD71200000E64
:10107000056E000E066EBA8AFE0E1BEC08F05CECE4
:1010800007F0046E5CEC07F0056E600014F003F0EE
:10109000033A0F0E03160450F00B0310066E0650B1
:1010A0001200390191B1A1A103D041EC09F0110066
:1010B00094BFA4AF03D03CEC09F0110095B1A5A1F9
:1010C00003D046EC09F0110098AD1100A8AD110055
:1010D00037EC09F011000CD060001FF0F6FF600043
:1010E00023F0F7FF0800F55011EC07F0074A082A33
:1010F00060001FF0F6FF600023F0F7FF0800F550D6
:101100000009D8B41200E8D7066E0650F00B046E42
:10111000600018F003F00F0E03160338F00B056E95
:10112000F80E1BEC08F004501BEC08F005501BEC0B
:1011300008F012003D0173AF03D03650D8B412004E
:10114000000E366E800E746F000E756F030E7B6F8F
:10115000840E736F000E796F000E766F1200000E12
:101160003901C06F000EC16F000EC26F000EC36F59
:10117000000EC46F000EC56F000EC66F000EC76F65
:10118000120000EE2EF0090EEE6AE806FDE1080EF0
:10119000D56E000ED66E000ED76E000EF86E0001F2
:1011A0001FEF06F037503810D8B4120001D81200E3
:1011B0000500FA6E3750FD6E3850FE6EF850FF6E27
:1011C000FA50120039503A10D8B4120001D8120067
:1011D0000500FA6E3950FD6E3A50FE6EF850FF6E03
:1011E000FA5012003B503C10D8B4120001D8120043
:1011F0000500FA6E3B50FD6E3C50FE6EF850FF6EDF
:10120000FA50120049EC09F0AFEC08F075EC06F06A
:1012100011EC09F0A0EC07F09AEC08F0C3EC05F033
:101220001200620E3901D96F000EDB6F000EDD6F08
:10123000020EDF6F000EDE6F1200600004F037F068
:10124000600008F038F01200600004F039F060002F
:1012500008F03AF01200600004F03BF0600008F083
:101260003CF01200BB8EBA82BA94BA8012003901E7
:10127000A89DD2EC08F012003901A49FE2EC08F01E
:1012800012003901A191F2EC08F012003901A59188
:0C1290001200D29A12001200120012008C
:020000040020DA
:10000000FF0FFF0FFF0FFF0FFF0FFF0FFF0FFF0F80
:020000040030CA
:0A000000ECFFF7FF9FFFFFDFFFFF9B
:00000001FF
