:020000040000FA
:040000000DEF00F010
:04000800BFEF05F051
:06001800FF006EEF06F090
:1008000000646464646464003F3F3F3F0000800E06
:100810008F6E8E50E00B800AD8A4FBD7000E916E2D
:10082000000E3701006F000EBA6F000EBB6F000E96
:10083000B86F000EB96F000EBE6F000EBF6F000ED6
:10084000BC6F000EBD6F000EA26F000EA36F000EF6
:10085000A06F000EA16F000EA66F000EA76F000E16
:10086000A46F000EA56F000EAA6F000EAB6F000EF6
:10087000A86F000EA96F000EAE6F000EAF6F000ED6
:10088000AC6F000EAD6F000EB26F000EB36F000EB6
:10089000B06F000EB16F000EB66F000EB76F000E96
:1008A000B46F000EB56F000E036FA80E046F010E3B
:1008B000056F000E8F6E6F0038FE01F0E00E01161E
:1008C000D8B41200F8D75FEC06F013EC05F0BB8A41
:1008D000BA8ABC88BC86020E146E450E136EAA0E30
:1008E000E82EFED7132EFCD7142EFAD7010E076E72
:1008F000010E63EC05F0010E076E080E086ED9ECD0
:1009000005F0000E076E020E63EC05F0A10E3DEC43
:1009100005F0F00E3DEC05F0000E086E020E076EBD
:10092000000E0A6E090E096E000E0C6E040E0B6EA0
:10093000080E0D6E080E0E6EDDEC04F09BEC06F05A
:10094000CAD7000EBA6E000EBB6E000EBC6ED80E7B
:10095000C26E0F0EC36E240EC46E040E3A01606F99
:10096000000E506F000E406F000E816F000E516F31
:10097000000E416F000E616F000E426F000E526F4D
:10098000030E626F4369536963694469546964691A
:10099000080E846F210E106F110EE46F080EC06FE9
:1009A000220E116F0B0EED6F330E0C6F0A0EC26F1D
:1009B000090EC16F100EE36F1200300EF2EC05F05D
:1009C00000D000D00750100DF35009246F0FF2EC47
:1009D00005F0000E126E19D0600037F0F6FF6000CF
:1009E0003BF0F7FF0800F5503DEC05F00D4A0E2AEC
:1009F000600037F0F6FF60003BF0F7FF0800F550AD
:100A00003DEC05F00D4A0E2A122A12500F6E106AA4
:100A10000B500F5C1050800A116E0C50800A115858
:100A2000D8B01200D9D7BB9A040E076E3E0EE82E3E
:100A3000FED7072EFCD7BB8A210E076E760EE82E56
:100A4000FED7072EFCD700D0BA8ABC98BC96300ED1
:100A5000F2EC05F00C0EF2EC05F0010EF2EC05F0F4
:100A6000020EF2EC05F0060EF2EC05F00C0EF2ECC4
:100A700005F0140EF2EC05F01200066E0650F00BB5
:100A8000046E600018F003F00F0E03160338F00B2D
:100A9000056E070E036E7D0EE82EFED7032EFCD7E3
:100AA00000F0FA0EA3EC05F00450A3EC05F005509D
:100AB000A3EC05F0070E036E7D0EE82EFED7032E85
:100AC000FCD700F01200096E0904D8A403D0075027
:100AD000800F086E020E0918D8A403D00750900F9B
:100AE000086E030E0918D8A403D00750880F086EAB
:100AF000040E0918D8A403D00750980F086E0850A8
:100B0000F2EC05F012003901A191D2906C0E016E49
:100B10000D0E026E94EC06F039019181A49FD292E1
:100B20006A0E016E0D0E026E8DEC06F03901948F87
:100B3000A89DD294680E016E0D0E026E86EC06F032
:100B40003901988D1200016E000E026E000E026EC9
:100B500001AE02D0BC8801D0BC98BC86A60EE82E9F
:100B6000FED700D0BC96A60EE82EFED700D00150CE
:100B70000124016E022A070E0264EAD7120039012D
:100B800091B1A1A103D0AAEC06F0110094BFA4AFCB
:100B900003D0A5EC06F0110095B1A5A103D0AFECF0
:100BA00006F0110098AD1100A8AD1100A0EC06F000
:100BB00011000CD060001FF0F6FF600023F0F7FF7B
:100BC0000800F5503DEC05F0074A082A60001FF0C8
:100BD000F6FF600023F0F7FF0800F5500009D8B4D5
:100BE0001200E8D7066E0650F00B046E600018F095
:100BF00003F00F0E03160338F00B056EF80EA3EC8E
:100C000005F00450A3EC05F00550A3EC05F012002C
:100C10003D0173AF03D01B50D8B41200000E1B6E01
:100C2000800E746F000E756F030E7B6F840E736FF2
:100C3000000E796F000E766F1200000E3901C06F42
:100C4000000EC16F000EC26F000EC36F000EC46FA6
:100C5000000EC56F000EC66F000EC76F1200155054
:100C60001610D8B4120001D812000500FA6E155003
:100C7000FD6E1650FE6EF850FF6EFA5012001750BF
:100C80001810D8B4120001D812000500FA6E1750DF
:100C9000FD6E1850FE6EF850FF6EFA50120019509B
:100CA0001A10D8B4120001D812000500FA6E1950BB
:100CB000FD6E1A50FE6EF850FF6EFA501200B2EC44
:100CC00006F01DEC06F0A1EC04F07AEC06F083ECE3
:100CD00005F008EC06F007EC04F012001B6A080EA1
:100CE000D56E000ED66E000ED76E000EF86E0001A7
:100CF00063EF04F0620E3901D96F000EDB6F000E56
:100D0000DD6F020EDF6F000EDE6F1200600004F078
:100D100015F0600008F016F01200600004F017F003
:100D2000600008F018F01200600004F019F0600094
:100D300008F01AF01200BB8EBA82BA94BA80120080
:100D40003901A89D2FEC06F012003901A49F3FEC59
:100D500006F012003901A1914FEC06F012003901A2
:0E0D6000A5911200D29A120012001200120089
:020000040020DA
:10000000FF0FFF0FFF0FFF0FFF0FFF0FFF0FFF0F80
:020000040030CA
:0A000000ECFFF7FF9FFFFFDFFFFF9B
:00000001FF
